{
  "_format": "hh-sol-artifact-1",
  "contractName": "LineaL1Gateway",
  "sourceName": "cache/solpp-generated-contracts/gateway/LineaL1Gateway.sol",
  "abi": [
    {
      "anonymous": false,
      "inputs": [
        {
          "indexed": false,
          "internalType": "address",
          "name": "acceptor",
          "type": "address"
        },
        {
          "indexed": false,
          "internalType": "address",
          "name": "receiver",
          "type": "address"
        },
        {
          "indexed": false,
          "internalType": "address",
          "name": "token",
          "type": "address"
        },
        {
          "indexed": false,
          "internalType": "uint128",
          "name": "amount",
          "type": "uint128"
        },
        {
          "indexed": false,
          "internalType": "uint16",
          "name": "withdrawFeeRate",
          "type": "uint16"
        },
        {
          "indexed": false,
          "internalType": "uint32",
          "name": "accountIdOfNonce",
          "type": "uint32"
        },
        {
          "indexed": false,
          "internalType": "uint8",
          "name": "subAccountIdOfNonce",
          "type": "uint8"
        },
        {
          "indexed": false,
          "internalType": "uint32",
          "name": "nonce",
          "type": "uint32"
        },
        {
          "indexed": false,
          "internalType": "uint128",
          "name": "amountReceive",
          "type": "uint128"
        }
      ],
      "name": "Accept",
      "type": "event"
    },
    {
      "anonymous": false,
      "inputs": [
        {
          "indexed": false,
          "internalType": "address",
          "name": "previousAdmin",
          "type": "address"
        },
        {
          "indexed": false,
          "internalType": "address",
          "name": "newAdmin",
          "type": "address"
        }
      ],
      "name": "AdminChanged",
      "type": "event"
    },
    {
      "anonymous": false,
      "inputs": [
        {
          "indexed": true,
          "internalType": "address",
          "name": "beacon",
          "type": "address"
        }
      ],
      "name": "BeaconUpgraded",
      "type": "event"
    },
    {
      "anonymous": false,
      "inputs": [
        {
          "indexed": false,
          "internalType": "address",
          "name": "_receiver",
          "type": "address"
        },
        {
          "indexed": false,
          "internalType": "address",
          "name": "_token",
          "type": "address"
        },
        {
          "indexed": false,
          "internalType": "uint256",
          "name": "_amount",
          "type": "uint256"
        }
      ],
      "name": "ClaimedWithdrawERC20",
      "type": "event"
    },
    {
      "anonymous": false,
      "inputs": [
        {
          "indexed": false,
          "internalType": "address",
          "name": "_receiver",
          "type": "address"
        },
        {
          "indexed": false,
          "internalType": "uint256",
          "name": "_amount",
          "type": "uint256"
        }
      ],
      "name": "ClaimedWithdrawETH",
      "type": "event"
    },
    {
      "anonymous": false,
      "inputs": [
        {
          "indexed": true,
          "internalType": "uint192",
          "name": "txNonce",
          "type": "uint192"
        },
        {
          "indexed": false,
          "internalType": "address",
          "name": "token",
          "type": "address"
        },
        {
          "indexed": false,
          "internalType": "uint256",
          "name": "amount",
          "type": "uint256"
        },
        {
          "indexed": false,
          "internalType": "bytes32",
          "name": "zklinkAddress",
          "type": "bytes32"
        },
        {
          "indexed": false,
          "internalType": "uint8",
          "name": "subAccountId",
          "type": "uint8"
        },
        {
          "indexed": false,
          "internalType": "bool",
          "name": "_mapping",
          "type": "bool"
        }
      ],
      "name": "Deposit",
      "type": "event"
    },
    {
      "anonymous": false,
      "inputs": [
        {
          "indexed": false,
          "internalType": "uint8",
          "name": "version",
          "type": "uint8"
        }
      ],
      "name": "Initialized",
      "type": "event"
    },
    {
      "anonymous": false,
      "inputs": [
        {
          "indexed": true,
          "internalType": "address",
          "name": "previousOwner",
          "type": "address"
        },
        {
          "indexed": true,
          "internalType": "address",
          "name": "newOwner",
          "type": "address"
        }
      ],
      "name": "OwnershipTransferred",
      "type": "event"
    },
    {
      "anonymous": false,
      "inputs": [
        {
          "indexed": false,
          "internalType": "address",
          "name": "account",
          "type": "address"
        }
      ],
      "name": "Paused",
      "type": "event"
    },
    {
      "anonymous": false,
      "inputs": [
        {
          "indexed": false,
          "internalType": "uint64",
          "name": "fee",
          "type": "uint64"
        }
      ],
      "name": "SetFee",
      "type": "event"
    },
    {
      "anonymous": false,
      "inputs": [
        {
          "indexed": false,
          "internalType": "address",
          "name": "remoteGateWay",
          "type": "address"
        }
      ],
      "name": "SetRemoteGateway",
      "type": "event"
    },
    {
      "anonymous": false,
      "inputs": [
        {
          "indexed": false,
          "internalType": "address",
          "name": "account",
          "type": "address"
        }
      ],
      "name": "Unpaused",
      "type": "event"
    },
    {
      "anonymous": false,
      "inputs": [
        {
          "indexed": true,
          "internalType": "address",
          "name": "implementation",
          "type": "address"
        }
      ],
      "name": "Upgraded",
      "type": "event"
    },
    {
      "anonymous": false,
      "inputs": [
        {
          "indexed": false,
          "internalType": "address",
          "name": "receiver",
          "type": "address"
        },
        {
          "indexed": false,
          "internalType": "uint256",
          "name": "amount",
          "type": "uint256"
        }
      ],
      "name": "WithdrawFee",
      "type": "event"
    },
    {
      "inputs": [
        {
          "internalType": "address",
          "name": "receiver",
          "type": "address"
        },
        {
          "internalType": "address",
          "name": "token",
          "type": "address"
        },
        {
          "internalType": "uint128",
          "name": "amount",
          "type": "uint128"
        },
        {
          "internalType": "uint16",
          "name": "fastWithdrawFeeRate",
          "type": "uint16"
        },
        {
          "internalType": "uint32",
          "name": "accountIdOfNonce",
          "type": "uint32"
        },
        {
          "internalType": "uint8",
          "name": "subAccountIdOfNonce",
          "type": "uint8"
        },
        {
          "internalType": "uint32",
          "name": "nonce",
          "type": "uint32"
        }
      ],
      "name": "acceptERC20",
      "outputs": [],
      "stateMutability": "nonpayable",
      "type": "function"
    },
    {
      "inputs": [
        {
          "internalType": "address payable",
          "name": "receiver",
          "type": "address"
        },
        {
          "internalType": "uint128",
          "name": "amount",
          "type": "uint128"
        },
        {
          "internalType": "uint16",
          "name": "fastWithdrawFeeRate",
          "type": "uint16"
        },
        {
          "internalType": "uint32",
          "name": "accountIdOfNonce",
          "type": "uint32"
        },
        {
          "internalType": "uint8",
          "name": "subAccountIdOfNonce",
          "type": "uint8"
        },
        {
          "internalType": "uint32",
          "name": "nonce",
          "type": "uint32"
        }
      ],
      "name": "acceptETH",
      "outputs": [],
      "stateMutability": "payable",
      "type": "function"
    },
    {
      "inputs": [
        {
          "internalType": "bytes32",
          "name": "",
          "type": "bytes32"
        }
      ],
      "name": "accepts",
      "outputs": [
        {
          "internalType": "address",
          "name": "",
          "type": "address"
        }
      ],
      "stateMutability": "view",
      "type": "function"
    },
    {
      "inputs": [
        {
          "internalType": "address",
          "name": "_remoteBridge",
          "type": "address"
        },
        {
          "internalType": "address",
          "name": "_bridge",
          "type": "address"
        },
        {
          "internalType": "bytes",
          "name": "_bridgeCallData",
          "type": "bytes"
        },
        {
          "internalType": "uint256",
          "name": "_bridgeNonce",
          "type": "uint256"
        },
        {
          "internalType": "bytes",
          "name": "_cbCallData",
          "type": "bytes"
        },
        {
          "internalType": "uint256",
          "name": "_cbNonce",
          "type": "uint256"
        }
      ],
      "name": "claimERC20",
      "outputs": [],
      "stateMutability": "nonpayable",
      "type": "function"
    },
    {
      "inputs": [
        {
          "internalType": "bool",
          "name": "_isUSDC",
          "type": "bool"
        },
        {
          "internalType": "address",
          "name": "_nativeToken",
          "type": "address"
        },
        {
          "internalType": "address",
          "name": "_owner",
          "type": "address"
        },
        {
          "internalType": "uint128",
          "name": "_amount",
          "type": "uint128"
        },
        {
          "internalType": "uint32",
          "name": "_accountIdOfNonce",
          "type": "uint32"
        },
        {
          "internalType": "uint8",
          "name": "_subAccountIdOfNonce",
          "type": "uint8"
        },
        {
          "internalType": "uint32",
          "name": "_nonce",
          "type": "uint32"
        },
        {
          "internalType": "uint16",
          "name": "_fastWithdrawFeeRate",
          "type": "uint16"
        }
      ],
      "name": "claimERC20Callback",
      "outputs": [],
      "stateMutability": "nonpayable",
      "type": "function"
    },
    {
      "inputs": [
        {
          "internalType": "uint256",
          "name": "_value",
          "type": "uint256"
        },
        {
          "internalType": "bytes",
          "name": "_callData",
          "type": "bytes"
        },
        {
          "internalType": "uint256",
          "name": "_nonce",
          "type": "uint256"
        }
      ],
      "name": "claimETH",
      "outputs": [],
      "stateMutability": "nonpayable",
      "type": "function"
    },
    {
      "inputs": [
        {
          "internalType": "address",
          "name": "_owner",
          "type": "address"
        },
        {
          "internalType": "uint128",
          "name": "_amount",
          "type": "uint128"
        },
        {
          "internalType": "uint32",
          "name": "_accountIdOfNonce",
          "type": "uint32"
        },
        {
          "internalType": "uint8",
          "name": "_subAccountIdOfNonce",
          "type": "uint8"
        },
        {
          "internalType": "uint32",
          "name": "_nonce",
          "type": "uint32"
        },
        {
          "internalType": "uint16",
          "name": "_fastWithdrawFeeRate",
          "type": "uint16"
        }
      ],
      "name": "claimETHCallback",
      "outputs": [],
      "stateMutability": "payable",
      "type": "function"
    },
    {
      "inputs": [
        {
          "internalType": "address",
          "name": "_token",
          "type": "address"
        },
        {
          "internalType": "uint256",
          "name": "_amount",
          "type": "uint256"
        },
        {
          "internalType": "bytes32",
          "name": "_zkLinkAddress",
          "type": "bytes32"
        },
        {
          "internalType": "uint8",
          "name": "_subAccountId",
          "type": "uint8"
        },
        {
          "internalType": "bool",
          "name": "_mapping",
          "type": "bool"
        }
      ],
      "name": "depositERC20",
      "outputs": [],
      "stateMutability": "payable",
      "type": "function"
    },
    {
      "inputs": [
        {
          "internalType": "bytes32",
          "name": "_zkLinkAddress",
          "type": "bytes32"
        },
        {
          "internalType": "uint8",
          "name": "_subAccountId",
          "type": "uint8"
        }
      ],
      "name": "depositETH",
      "outputs": [],
      "stateMutability": "payable",
      "type": "function"
    },
    {
      "inputs": [],
      "name": "fee",
      "outputs": [
        {
          "internalType": "uint64",
          "name": "",
          "type": "uint64"
        }
      ],
      "stateMutability": "view",
      "type": "function"
    },
    {
      "inputs": [
        {
          "internalType": "contract IMessageService",
          "name": "_messageService",
          "type": "address"
        },
        {
          "internalType": "contract ITokenBridge",
          "name": "_tokenBridge",
          "type": "address"
        },
        {
          "internalType": "contract IUSDCBridge",
          "name": "_usdcBridge",
          "type": "address"
        }
      ],
      "name": "initialize",
      "outputs": [],
      "stateMutability": "nonpayable",
      "type": "function"
    },
    {
      "inputs": [],
      "name": "messageService",
      "outputs": [
        {
          "internalType": "contract IMessageService",
          "name": "",
          "type": "address"
        }
      ],
      "stateMutability": "view",
      "type": "function"
    },
    {
      "inputs": [],
      "name": "owner",
      "outputs": [
        {
          "internalType": "address",
          "name": "",
          "type": "address"
        }
      ],
      "stateMutability": "view",
      "type": "function"
    },
    {
      "inputs": [],
      "name": "pause",
      "outputs": [],
      "stateMutability": "nonpayable",
      "type": "function"
    },
    {
      "inputs": [],
      "name": "paused",
      "outputs": [
        {
          "internalType": "bool",
          "name": "",
          "type": "bool"
        }
      ],
      "stateMutability": "view",
      "type": "function"
    },
    {
      "inputs": [],
      "name": "proxiableUUID",
      "outputs": [
        {
          "internalType": "bytes32",
          "name": "",
          "type": "bytes32"
        }
      ],
      "stateMutability": "view",
      "type": "function"
    },
    {
      "inputs": [],
      "name": "remoteGateway",
      "outputs": [
        {
          "internalType": "address",
          "name": "",
          "type": "address"
        }
      ],
      "stateMutability": "view",
      "type": "function"
    },
    {
      "inputs": [],
      "name": "renounceOwnership",
      "outputs": [],
      "stateMutability": "nonpayable",
      "type": "function"
    },
    {
      "inputs": [
        {
          "internalType": "uint64",
          "name": "_fee",
          "type": "uint64"
        }
      ],
      "name": "setFee",
      "outputs": [],
      "stateMutability": "nonpayable",
      "type": "function"
    },
    {
      "inputs": [
        {
          "internalType": "address",
          "name": "_remoteGateway",
          "type": "address"
        }
      ],
      "name": "setRemoteGateway",
      "outputs": [],
      "stateMutability": "nonpayable",
      "type": "function"
    },
    {
      "inputs": [],
      "name": "tokenBridge",
      "outputs": [
        {
          "internalType": "contract ITokenBridge",
          "name": "",
          "type": "address"
        }
      ],
      "stateMutability": "view",
      "type": "function"
    },
    {
      "inputs": [
        {
          "internalType": "address",
          "name": "newOwner",
          "type": "address"
        }
      ],
      "name": "transferOwnership",
      "outputs": [],
      "stateMutability": "nonpayable",
      "type": "function"
    },
    {
      "inputs": [],
      "name": "txNonce",
      "outputs": [
        {
          "internalType": "uint192",
          "name": "",
          "type": "uint192"
        }
      ],
      "stateMutability": "view",
      "type": "function"
    },
    {
      "inputs": [],
      "name": "unpause",
      "outputs": [],
      "stateMutability": "nonpayable",
      "type": "function"
    },
    {
      "inputs": [
        {
          "internalType": "address",
          "name": "newImplementation",
          "type": "address"
        }
      ],
      "name": "upgradeTo",
      "outputs": [],
      "stateMutability": "nonpayable",
      "type": "function"
    },
    {
      "inputs": [
        {
          "internalType": "address",
          "name": "newImplementation",
          "type": "address"
        },
        {
          "internalType": "bytes",
          "name": "data",
          "type": "bytes"
        }
      ],
      "name": "upgradeToAndCall",
      "outputs": [],
      "stateMutability": "payable",
      "type": "function"
    },
    {
      "inputs": [],
      "name": "usdcBridge",
      "outputs": [
        {
          "internalType": "contract IUSDCBridge",
          "name": "",
          "type": "address"
        }
      ],
      "stateMutability": "view",
      "type": "function"
    },
    {
      "inputs": [
        {
          "internalType": "address payable",
          "name": "_receiver",
          "type": "address"
        },
        {
          "internalType": "uint256",
          "name": "_amount",
          "type": "uint256"
        }
      ],
      "name": "withdrawFee",
      "outputs": [],
      "stateMutability": "nonpayable",
      "type": "function"
    }
  ],
  "bytecode": "0x60a080604052346100315730608052612fee908161003782396080518181816106a401528181610b690152611cc00152f35b600080fdfe6080604052600436101561001257600080fd5b60003560e01c8063188c879f146101d75780631914f447146101d25780632f4b4a57146101cd5780633659cfe6146101c85780633f4ba83a146101c35780634be11c84146101be5780634f1ef286146101b957806352d1902d146101b45780635a630d7a146101af5780635ac7ff26146101aa5780635c975abb146101a557806365b41e16146101a0578063715018a61461019b5780637648ce45146101965780637b5cb489146101915780638456cb591461018c5780638da5cb5b146101875780638dae45dd146101825780639c68f9471461017d578063b7bf7c0714610178578063c0c53b8b14610173578063c3a5f8911461016e578063c6328a4614610169578063c66323e514610164578063dc0e5a6c1461015f578063ddca3f431461015a578063f2fde38b146101555763fd9be5221461015057600080fd5b6117a8565b61170e565b6116e6565b611644565b611622565b6115f8565b61146b565b611310565b6112e6565b6111f0565b6111c6565b61119d565b611130565b6110b2565b610f32565b610ece565b610ea4565b610e80565b610d7b565b610c1b565b610b56565b610adb565b61086e565b6107cc565b61067d565b6105b0565b61054f565b61023c565b6001600160a01b038116036101ed57565b600080fd5b6064359060ff821682036101ed57565b60a4359060ff821682036101ed57565b6024359060ff821682036101ed57565b6084359060ff821682036101ed57565b801515036101ed57565b60a03660031901126101ed57600435610254816101dc565b602435604435916102636101f2565b906084359361027185610232565b610280600260fb5414156124cb565b600260fb5561029560ff61012d541615612517565b610191906102c36102bc6102b084546001600160401b031690565b6001600160401b031690565b34146126f7565b6102ce851515612737565b6040516370a0823160e01b8082523060048301526001600160a01b038516906020908184602481865afa9384156104fc5760009461052e575b5081906103168a303387611e9e565b60405190815230600482015292839060249082905afa9283156104fc578861034f6103559282966103c796600091610501575b50611e60565b1461277a565b6103b9898886610365878b6127db565b60405163237130ab60e21b9781019790975290151560248701526001600160a01b03166044860152606485019b909b52608484019a909a5260ff90991660a483015297151560c482015296879060e4820190565b03601f198101885287610a9f565b61015f546103e5906001600160a01b03165b6001600160a01b031690565b610162549096906001600160a01b031690873b156101ed576104219760009283604051809b81958294634f9e72ad60e11b8452600484016126b6565b03925af19586156104fc576104d79761046a7fa76db508b83f1f41b94df5e2785b906f1e16d93979213293df281811c95970d0956104b2936104ba9a6104e3575b505460401c90565b604080516001600160a01b03909816885260208801949094529286019390935260ff90951660608501529015156080840152926001600160c01b0384169290819060a0820190565b0390a26126df565b610191906001600160401b0382549181199060401b169116179055565b6104e1600160fb55565b005b806104f06104f692610a1b565b806107c1565b38610462565b6119cf565b6105219150863d8811610527575b6105198183610a9f565b8101906119c0565b38610349565b503d61050f565b8291945061054890823d8411610527576105198183610a9f565b9390610307565b346101ed5760203660031901126101ed576004356000526000602052602060018060a01b0360406000205416604051908152f35b9181601f840112156101ed578235916001600160401b0383116101ed57602083818601950101116101ed57565b346101ed5760603660031901126101ed576024356001600160401b0381116101ed576105e0903690600401610583565b906105f0600260fb5414156124cb565b600260fb5561060560ff61012d541615612517565b61015f54610162546001600160a01b039081169116803b156101ed5761065293600080946040519687958694859363248f049b60e11b855260443592339060043590309060048901612577565b03925af180156104fc5761066a576104e1600160fb55565b806104f061067792610a1b565b386104d7565b346101ed5760203660031901126101ed5760043561069a816101dc565b6001600160a01b037f0000000000000000000000000000000000000000000000000000000000000000811691906106d3308414156118fe565b6106f0600080516020612f9983398151915293828554161461195f565b6106ff8160655416331461186a565b6040519061070c82610a33565b600082527f4910fdfa16fed3260ed0e7147f7cc6da11a60208b5b9406d12a635614ffd91435460ff16156107465750506104e19150611a88565b6020600491604094939451928380926352d1902d60e01b825286165afa600091816107a1575b5061078e5760405162461bcd60e51b81528061078a60048201611a39565b0390fd5b6104e19361079c91146119db565b611b18565b6107ba91925060203d8111610527576105198183610a9f565b903861076c565b60009103126101ed57565b346101ed5760003660031901126101ed576107f260018060a01b0360655416331461186a565b61012d805460ff8116156108325760ff191690557f5db9ee0a495bf2e6ff9c91a7834c1ba4fdd244a5e8aa4e537bd38aeae4b073aa6020604051338152a1005b60405162461bcd60e51b815260206004820152601460248201527314185d5cd8589b194e881b9bdd081c185d5cd95960621b6044820152606490fd5b346101ed5760c03660031901126101ed5760043561088b816101dc565b60243590610898826101dc565b6001600160401b03906044358281116101ed576108b9903690600401610583565b9390606435936084359081116101ed576108d7903690600401610583565b94909260a435926108ed600260fb5414156124cb565b600260fb5561090260ff61012d541615612517565b61091561090e846125c4565b85146125d2565b61015f805490969061092f906001600160a01b03166103d9565b803b156101ed57604051809481809463248f049b60e11b9889835260009e8f9889953390600487019561096196612632565b03925af180156104fc578795610988926103d9926109f2575b50546001600160a01b031690565b610162549092906001600160a01b031691833b156109ee576109be86926040519889978896879586523390309060048801612632565b03925af180156104fc576109db575b506109d8600160fb55565b80f35b806104f06109e892610a1b565b386109cd565b8580fd5b806104f06109ff92610a1b565b3861097a565b634e487b7160e01b600052604160045260246000fd5b6001600160401b038111610a2e57604052565b610a05565b602081019081106001600160401b03821117610a2e57604052565b606081019081106001600160401b03821117610a2e57604052565b604081019081106001600160401b03821117610a2e57604052565b608081019081106001600160401b03821117610a2e57604052565b90601f801991011681019081106001600160401b03821117610a2e57604052565b6001600160401b038111610a2e57601f01601f191660200190565b60403660031901126101ed57600435610af3816101dc565b602435906001600160401b0382116101ed57366023830112156101ed57816004013590610b1f82610ac0565b91610b2d6040519384610a9f565b80835236602482860101116101ed5760208160009260246104e197018387013784010152611cb6565b346101ed5760003660031901126101ed577f00000000000000000000000000000000000000000000000000000000000000006001600160a01b03163003610bb057604051600080516020612f998339815191528152602090f35b60405162461bcd60e51b815260206004820152603860248201527f555550535570677261646561626c653a206d757374206e6f742062652063616c60448201527f6c6564207468726f7567682064656c656761746563616c6c00000000000000006064820152608490fd5b346101ed5760203660031901126101ed576004356001600160401b0381168091036101ed5760207f259653dcb5f66881f7c8192f46920f23b763bc33b3123a90bc06492f7c3e304a91610c7960018060a01b0360655416331461186a565b610191805467ffffffffffffffff191682179055604051908152a1005b604435906001600160801b03821682036101ed57565b606435906001600160801b03821682036101ed57565b602435906001600160801b03821682036101ed57565b6064359061ffff821682036101ed57565b60e4359061ffff821682036101ed57565b6044359061ffff821682036101ed57565b60a4359061ffff821682036101ed57565b6084359063ffffffff821682036101ed57565b60c4359063ffffffff821682036101ed57565b6064359063ffffffff821682036101ed57565b60a4359063ffffffff821682036101ed57565b6044359063ffffffff821682036101ed57565b346101ed5760e03660031901126101ed57600435610d98816101dc565b602435610da4816101dc565b610dac610c96565b90610db5610cd8565b610dbd610d1c565b610dc5610202565b91610dce610d2f565b93610ddf858585858a868d336121f8565b956001600160801b03916001600160a01b0390811690610e03848a168b3385611e9e565b60405199338b521660208a0152604089015216606087015261ffff16608086015263ffffffff1660a085015260ff1660c084015260e08301610e499163ffffffff169052565b6001600160801b03166101008201526101207f05bb9b3f234e9dac83713761242d40320705b4204ba263981970118574d999cb91a1005b346101ed5760003660031901126101ed57602060ff61012d54166040519015158152f35b346101ed5760003660031901126101ed57610162546040516001600160a01b039091168152602090f35b346101ed57600080600319360112610f2f5760655481906001600160a01b03811690610efb33831461186a565b6001600160a01b0319166065557f8be0079c531659141344cd1fd0a4f28419497f9722a3daafe3b4186f6b6457e08280a380f35b80fd5b60403660031901126101ed57600435610f49610212565b90610f59600260fb5414156124cb565b600260fb55610f6e60ff61012d541615612517565b61019190610f9a610f896102b084546001600160401b031690565b610f9481341161267a565b34611e60565b604051632455013160e01b60208201526024810183905260ff8516604482015260648082018390528152610fcf608482610a9f565b61015f54610fe5906001600160a01b03166103d9565b610162549091906001600160a01b031690823b156101ed576110219260009285604051809681958294634f9e72ad60e11b8452600484016126b6565b03925af19485156104fc576110656104ba957fa76db508b83f1f41b94df5e2785b906f1e16d93979213293df281811c95970d0936104d7986104e357505460401c90565b6040805173eeeeeeeeeeeeeeeeeeeeeeeeeeeeeeeeeeeeeeee8152602081019590955284019490945260ff166060830152600060808301526001600160c01b038316918060a081016104b2565b346101ed5760203660031901126101ed577fe69bfbd1f200033f815da41706e527e38e7d3c0ba255a97f68af75eff0ed930b60206004356110f2816101dc565b6065546001600160a01b03919061110c908316331461186a565b16610162816bffffffffffffffffffffffff60a01b825416179055604051908152a1005b346101ed5760003660031901126101ed5761115660018060a01b0360655416331461186a565b61012d6001815461116a60ff821615612517565b60ff19161790557f62e78cea01bee320cd4e420270b5ea74000d11b0c9f74754ebdbfc544b05a2586020604051338152a1005b346101ed5760003660031901126101ed576065546040516001600160a01b039091168152602090f35b346101ed5760003660031901126101ed5761015f546040516001600160a01b039091168152602090f35b346101ed576101003660031901126101ed5760043561120e81610232565b60243561121a816101dc565b604435611226816101dc565b61122e610cac565b611236610d1c565b61123e610202565b91611247610d2f565b93611250610ce9565b9560018060a01b0397600460208a61015f541661126e813314612b5d565b6040516333f2026760e11b815292839182905afa80156104fc576104e19a6112b1926000926112b6575b506101625481166001600160a01b03165b911614612b9f565b612ce7565b6112d891925060203d81116112df575b6112d08183610a9f565b8101906127c6565b9038611298565b503d6112c6565b346101ed5760003660031901126101ed57610161546040516001600160a01b039091168152602090f35b346101ed5760603660031901126101ed5760043561132d816101dc565b61141260243561133c816101dc565b6113f06044359161134c836101dc565b6113ce611357612469565b9586611457575b61137860ff60325460081c16611373816123a6565b6123a6565b611381336118b5565b61139f60ff60325460081c16611396816123a6565b611373816123a6565b600160fb556113ac6124a9565b61015f80546001600160a01b0319166001600160a01b03909216919091179055565b61016080546001600160a01b0319166001600160a01b03909216919091179055565b61016180546001600160a01b0319166001600160a01b03909216919091179055565b61141857005b61142861ff001960325416603255565b604051600181527f7f26b83ff96e1f2b6a682f133852f6798a09c465da95921460cefb384740249890602090a1005b61010061ff0019603254161760325561135e565b60c03660031901126101ed57600435611483816101dc565b61148b610cc2565b611493610cfa565b9061149c610d42565b926114a5610222565b6114ad610d55565b6001600160a01b03831691906114c881838989898833612107565b916001600160801b03831697883403973489116115f357899560008080809d81945af16114f3611c86565b50156115c9577f05bb9b3f234e9dac83713761242d40320705b4204ba263981970118574d999cb988a6115a49734036115aa575b5050604080513381526001600160a01b03909816602089015273eeeeeeeeeeeeeeeeeeeeeeeeeeeeeeeeeeeeeeee908801526001600160801b03978816606088015261ffff16608087015263ffffffff90811660a087015260ff90911660c08601521660e084015292909216610100820152908190610120820190565b0390a180f35b8080806115c294335af16115bc611c86565b50611e6d565b388a611527565b60405162461bcd60e51b8152602060048201526002602482015261045360f41b6044820152606490fd5b611e4a565b346101ed5760003660031901126101ed57610160546040516001600160a01b039091168152602090f35b346101ed5760003660031901126101ed576020610191546040519060401c8152f35b60c03660031901126101ed5760043561165c816101dc565b611664610cc2565b61166c610d68565b6116746101f2565b61167c610d1c565b91611685610d0b565b9360018060a01b0395600460208861015f54166116a3813314612b5d565b6040516333f2026760e11b815292839182905afa80156104fc576104e1986116e1926000926112b657506101625481166001600160a01b03166112a9565b612be0565b346101ed5760003660031901126101ed5760206001600160401b036101915416604051908152f35b346101ed5760203660031901126101ed5760043561172b816101dc565b6065546001600160a01b0390611744908216331461186a565b811615611754576104e1906118b5565b60405162461bcd60e51b815260206004820152602660248201527f4f776e61626c653a206e6577206f776e657220697320746865207a65726f206160448201526564647265737360d01b6064820152608490fd5b346101ed5760403660031901126101ed576004356117c5816101dc565b606554602435916001600160a01b03916117e2908316331461186a565b166000918280808084865af16117f6611c86565b501561182f577f66bf9186b00db666fc37aaffbb95a050c66e599e000c785c1dff0467d868f1b19160409182519182526020820152a180f35b60405162461bcd60e51b81526020600482015260136024820152721dda5d1a191c985dc81999594819985a5b1959606a1b6044820152606490fd5b1561187157565b606460405162461bcd60e51b815260206004820152602060248201527f4f776e61626c653a2063616c6c6572206973206e6f7420746865206f776e65726044820152fd5b606580546001600160a01b039283166001600160a01b0319821681179092559091167f8be0079c531659141344cd1fd0a4f28419497f9722a3daafe3b4186f6b6457e0600080a3565b1561190557565b60405162461bcd60e51b815260206004820152602c60248201527f46756e6374696f6e206d7573742062652063616c6c6564207468726f7567682060448201526b19195b1959d85d1958d85b1b60a21b6064820152608490fd5b1561196657565b60405162461bcd60e51b815260206004820152602c60248201527f46756e6374696f6e206d7573742062652063616c6c6564207468726f7567682060448201526b6163746976652070726f787960a01b6064820152608490fd5b908160209103126101ed575190565b6040513d6000823e3d90fd5b156119e257565b60405162461bcd60e51b815260206004820152602960248201527f45524331393637557067726164653a20756e737570706f727465642070726f786044820152681a58589b195555525160ba1b6064820152608490fd5b60809060208152602e60208201527f45524331393637557067726164653a206e657720696d706c656d656e7461746960408201526d6f6e206973206e6f74205555505360901b60608201520190565b803b15611abd57600080516020612f9983398151915280546001600160a01b0319166001600160a01b03909216919091179055565b60405162461bcd60e51b815260206004820152602d60248201527f455243313936373a206e657720696d706c656d656e746174696f6e206973206e60448201526c1bdd08184818dbdb9d1c9858dd609a1b6064820152608490fd5b611b2181611a88565b6040516001600160a01b0382167fbc7cd75a20ee27fd9adebab32041f755214dbc6bffa90cc0225b39da2e5c2d3b600080a2825115801590611c28575b611b6757505050565b813b15611bd7575060008281926020611bd495519201905af4611b88611c86565b60405191611b9583610a4e565b602783527f416464726573733a206c6f772d6c6576656c2064656c65676174652063616c6c6020840152660819985a5b195960ca1b6040840152611e0a565b50565b62461bcd60e51b815260206004820152602660248201527f416464726573733a2064656c65676174652063616c6c20746f206e6f6e2d636f6044820152651b9d1c9858dd60d21b6064820152608490fd5b506000611b5e565b611c3981611a88565b6040516001600160a01b0382167fbc7cd75a20ee27fd9adebab32041f755214dbc6bffa90cc0225b39da2e5c2d3b600080a2825115801590611c7e57611b6757505050565b506001611b5e565b3d15611cb1573d90611c9782610ac0565b91611ca56040519384610a9f565b82523d6000602084013e565b606090565b6001600160a01b037f000000000000000000000000000000000000000000000000000000000000000081169290611cef308514156118fe565b611d0c600080516020612f9983398151915294828654161461195f565b611d1b8160655416331461186a565b7f4910fdfa16fed3260ed0e7147f7cc6da11a60208b5b9406d12a635614ffd91435460ff1615611d53575050611d519150611a88565b565b6020600491604094939451928380926352d1902d60e01b825286165afa60009181611daa575b50611d975760405162461bcd60e51b81528061078a60048201611a39565b611d5193611da591146119db565b611c30565b611dc391925060203d8111610527576105198183610a9f565b9038611d79565b919082519283825260005b848110611df6575050826000602080949584010152601f8019910116010190565b602081830181015184830182015201611dd5565b90919015611e16575090565b815115611e265750805190602001fd5b60405162461bcd60e51b81526020600482015290819061078a906024830190611dca565b634e487b7160e01b600052601160045260246000fd5b919082039182116115f357565b15611e7457565b60405162461bcd60e51b8152602060048201526002602482015261453160f01b6044820152606490fd5b6040516323b872dd60e01b60208201526001600160a01b03928316602482015292909116604483015260648083019390935291815260a08101918183106001600160401b03841117610a2e57611d5192604052611f6d565b908160209103126101ed5751611f0b81610232565b90565b15611f1557565b60405162461bcd60e51b815260206004820152602a60248201527f5361666545524332303a204552433230206f7065726174696f6e20646964206e6044820152691bdd081cdd58d8d9595960b21b6064820152608490fd5b6040516001600160a01b039190911691611f8682610a69565b6020928383527f5361666545524332303a206c6f772d6c6576656c2063616c6c206661696c656484840152803b15611ffd5760008281928287611fd89796519301915af1611fd2611c86565b90611e0a565b80519081611fe557505050565b82611d5193611ff8938301019101611ef6565b611f0e565b60405162461bcd60e51b815260048101859052601d60248201527f416464726573733a2063616c6c20746f206e6f6e2d636f6e74726163740000006044820152606490fd5b1561204957565b60405162461bcd60e51b8152602060048201526002602482015261241960f11b6044820152606490fd5b1561207a57565b60405162461bcd60e51b8152602060048201526002602482015261483360f01b6044820152606490fd5b9061ffff809216612710039182116115f357565b9190916001600160801b03808094169116029182169182036115f357565b156120dd57565b60405162461bcd60e51b8152602060048201526002602482015261120d60f21b6044820152606490fd5b9396956001600160a01b0393848316939092909184156121ce57611d519761213961216f966121af988a161415612042565b6127106001600160801b0361216761ffff61215784828b1610612073565b612160896120a4565b16876120b8565b16049a612262565b61219f6121996103d961218c846000526000602052604060002090565b546001600160a01b031690565b156120d6565b6000526000602052604060002090565b80546001600160a01b0319166001600160a01b03909216919091179055565b60405162461bcd60e51b8152602060048201526002602482015261483160f01b6044820152606490fd5b9497966001600160a01b03948583169490939092909185156121ce57611d519861222c61216f976121af998b161415612042565b6127106001600160801b0361225a61ffff61224a84828c1610612073565b6122538a6120a4565b16886120b8565b16049b612313565b60405160e091821b6001600160e01b03199081166020830190815260f89490941b6001600160f81b03191660248301529390911b909216602583015260609290921b6bffffffffffffffffffffffff1916602982015273777777777777777777777777777777777777777760611b603d82015260809290921b6001600160801b031916605183015260f09290921b6001600160f01b03191660618201525b6043815261230d81610a84565b51902090565b60405160e091821b6001600160e01b03199081166020830190815260f89490941b6001600160f81b03191660248301529390911b9092166025830152606092831b6bffffffffffffffffffffffff1990811660298401529390921b909216603d83015260809290921b6001600160801b031916605182015260f09290921b6001600160f01b031916606183015290612300565b156123ad57565b60405162461bcd60e51b815260206004820152602b60248201527f496e697469616c697a61626c653a20636f6e7472616374206973206e6f74206960448201526a6e697469616c697a696e6760a81b6064820152608490fd5b1561240d57565b60405162461bcd60e51b815260206004820152602e60248201527f496e697469616c697a61626c653a20636f6e747261637420697320616c72656160448201526d191e481a5b9a5d1a585b1a5e995960921b6064820152608490fd5b60325460ff8160081c1660001461248b5750612486303b15612406565b600090565b8061249c600160ff81941610612406565b60ff191617603255600190565b6124be60ff60325460081c16611373816123a6565b61012d805460ff19169055565b156124d257565b60405162461bcd60e51b815260206004820152601f60248201527f5265656e7472616e637947756172643a207265656e7472616e742063616c6c006044820152606490fd5b1561251e57565b60405162461bcd60e51b815260206004820152601060248201526f14185d5cd8589b194e881c185d5cd95960821b6044820152606490fd5b908060209392818452848401376000828201840152601f01601f1916010190565b6001600160a01b03918216815291811660208301526000604083015260608201929092529116608082015260e060a082018190529094939260c0926125bf9287019190612556565b930152565b90600182018092116115f357565b156125d957565b60405162461bcd60e51b815260206004820152602b60248201527f436c61696d206572633230206d657373616765206e6f6e6365206973206e6f7460448201526a20636f6e74696e756f757360a81b6064820152608490fd5b6001600160a01b03918216815291811660208301526000604083018190526060830152909116608082015260e060a082018190529094939260c0926125bf9287019190612556565b1561268157565b60405162461bcd60e51b815260206004820152600d60248201526c56616c756520746f6f206c6f7760981b6044820152606490fd5b6001600160a01b03909116815260006020820152606060408201819052611f0b92910190611dca565b6001600160c01b039081169081146115f35760010190565b156126fe57565b60405162461bcd60e51b8152602060048201526011602482015270496e76616c6964206d73672076616c756560781b6044820152606490fd5b1561273e57565b60405162461bcd60e51b8152602060048201526014602482015273125b9d985b1a59081d1bdad95b88185b5bdd5b9d60621b6044820152606490fd5b1561278157565b60405162461bcd60e51b815260206004820152601d60248201527f4f6e6c7920737570706f7274207075726520657263323020746f6b656e0000006044820152606490fd5b908160209103126101ed5751611f0b816101dc565b6101618054919392916000906127f9906001600160a01b03166103d9565b906040518092631f209df760e11b825281600460209384935afa9283156104fc5782936129f8575b506001600160a01b0387811693909190821684036128cf575050508161218c846103d99361285b6103d9612861975460018060a01b031690565b90612a82565b610162549091906001600160a01b0316823b156101ed576040516370aff70f60e01b815260048101929092526001600160a01b03166024820152906000908290604490829084905af180156104fc576128bc575b5060019190565b806104f06128c992610a1b565b386128b5565b9196935091936128f0816101609661285b6103d9895460018060a01b031690565b84548790612906906001600160a01b03166103d9565b610162546001600160a01b031690803b156129f457604051632917540d60e11b81526001600160a01b0388811660048301526024820195909552919093166044820152918290606490829084905af180156104fc576129e1575b509254859390612978906001600160a01b03166103d9565b60405163ca41a24760e01b81526001600160a01b038516600482015291908190839060249082905afa9687156104fc57966129c2575b50508416156129bc57509190565b92509190565b6129d9929650803d106112df576112d08183610a9f565b9338806129ae565b806104f06129ee92610a1b565b38612960565b8280fd5b81612a109294503d85116112df576112d08183610a9f565b9138612821565b15612a1e57565b60405162461bcd60e51b815260206004820152603660248201527f5361666545524332303a20617070726f76652066726f6d206e6f6e2d7a65726f60448201527520746f206e6f6e2d7a65726f20616c6c6f77616e636560501b6064820152608490fd5b91909181158015612adf575b611d5193612a9e612ada92612a17565b60405163095ea7b360e01b60208201526001600160a01b039091166024820152604481019390935282606481015b03601f198101845283610a9f565b611f6d565b50604051636eb1769f60e11b81523060048201526001600160a01b038416602482015292602084806044810103816001600160a01b0386165afa9081156104fc57612a9e612ada92611d5196600091612b3f575b50159250509350612a8e565b612b57915060203d8111610527576105198183610a9f565b38612b33565b15612b6457565b60405162461bcd60e51b81526020600482015260136024820152724e6f74206d657373616765207365727669636560681b6044820152606490fd5b15612ba657565b60405162461bcd60e51b81526020600482015260126024820152714e6f742072656d6f7465206761746577617960701b6044820152606490fd5b94929093916001600160801b03851695863403612ca25760009485948594859489612c0a95612f35565b95865af1612c16611c86565b5015612c6a57604080516001600160a01b0390931683526001600160801b0390911660208301527f2ae204090f7b337713f9162ed490b5b331f26f4aba3e892332fdd1dd3e6061009190819081015b0390a1565b60405162461bcd60e51b815260206004820152601060248201526f10db185a5b48195d1a0819985a5b195960821b6044820152606490fd5b60405162461bcd60e51b815260206004820152601960248201527f436c61696d206574682076616c7565206e6f74206d61746368000000000000006044820152606490fd5b9692949396959195600090600014612ddf57505061016154600493929190602090612d1a906001600160a01b03166103d9565b604051631f209df760e11b815295869182905afa9283156104fc577f30c4cc697bd26956979f667fd07f483c6b0f5d4a97fd39730d6e5bcf9ac86dab9786612d7095612c6597600091612dc1575b508099612f88565b91612d8e6001600160801b038216846001600160a01b038716612efc565b604080516001600160a01b0394851681529490931660208501526001600160801b03169183019190915281906060820190565b612dd9915060203d81116112df576112d08183610a9f565b38612d68565b6101605491979490939291612dfc906001600160a01b03166103d9565b9460405194630a37fd9360e11b865260209586816004818b5afa9081156104fc57612e629888928d928591612edf575b506040516303dbe1bb60e21b815260048101919091526001600160a01b0390921660248301529098899190829081906044820190565b03915afa80156104fc577f30c4cc697bd26956979f667fd07f483c6b0f5d4a97fd39730d6e5bcf9ac86dab9a612c6598612d70988b9493612ec0575b50506001600160a01b03821615612eb757508099612f88565b90508099612f88565b612ed7929350803d106112df576112d08183610a9f565b903880612e9e565b612ef69150843d8611610527576105198183610a9f565b38612e2c565b60405163a9059cbb60e01b60208201526001600160a01b0390921660248301526044820192909252611d5191612ada8260648101612acc565b949293612f4494869293612262565b600090815260208190526040902080546001600160a01b0316918215612f6957505090565b81546001600160a01b0319166001600160a01b03821617909155905090565b959394612f44958792939461231356fe360894a13ba1a3210667c828492db98dca3e2076cc3735a920a3ca505d382bbca2646970667358221220416065b47429171c81a36efec32e0b030bf280922391c1ff84b9b7551939102f64736f6c63430008120033",
  "linkReferences": {},
  "deployedLinkReferences": {}
}